{
  "_format": "hh-sol-artifact-1",
  "contractName": "Marketplace",
  "sourceName": "contracts/NFT_Marketplace.sol",
  "abi": [
    {
      "inputs": [],
      "stateMutability": "nonpayable",
      "type": "constructor"
    },
    {
      "inputs": [],
      "name": "ReentrancyGuardReentrantCall",
      "type": "error"
    },
    {
      "anonymous": false,
      "inputs": [
        {
          "indexed": true,
          "internalType": "uint256",
          "name": "itemid",
          "type": "uint256"
        },
        {
          "indexed": true,
          "internalType": "address",
          "name": "nftContract",
          "type": "address"
        },
        {
          "indexed": true,
          "internalType": "uint256",
          "name": "tokenId",
          "type": "uint256"
        },
        {
          "indexed": false,
          "internalType": "address",
          "name": "seller",
          "type": "address"
        },
        {
          "indexed": false,
          "internalType": "address",
          "name": "buyer",
          "type": "address"
        },
        {
          "indexed": false,
          "internalType": "uint256",
          "name": "price",
          "type": "uint256"
        }
      ],
      "name": "ItemSold",
      "type": "event"
    },
    {
      "anonymous": false,
      "inputs": [
        {
          "indexed": true,
          "internalType": "uint256",
          "name": "itemid",
          "type": "uint256"
        },
        {
          "indexed": true,
          "internalType": "address",
          "name": "nftContract",
          "type": "address"
        },
        {
          "indexed": true,
          "internalType": "uint256",
          "name": "tokenId",
          "type": "uint256"
        },
        {
          "indexed": false,
          "internalType": "address",
          "name": "seller",
          "type": "address"
        },
        {
          "indexed": false,
          "internalType": "address",
          "name": "owner",
          "type": "address"
        },
        {
          "indexed": false,
          "internalType": "uint256",
          "name": "price",
          "type": "uint256"
        },
        {
          "indexed": false,
          "internalType": "bool",
          "name": "sold",
          "type": "bool"
        }
      ],
      "name": "MarketItemCreated",
      "type": "event"
    },
    {
      "inputs": [
        {
          "internalType": "uint256",
          "name": "itemId",
          "type": "uint256"
        }
      ],
      "name": "buyMarketItem",
      "outputs": [],
      "stateMutability": "payable",
      "type": "function"
    },
    {
      "inputs": [
        {
          "internalType": "address",
          "name": "nftContract",
          "type": "address"
        },
        {
          "internalType": "uint256",
          "name": "tokenId",
          "type": "uint256"
        },
        {
          "internalType": "uint256",
          "name": "price",
          "type": "uint256"
        }
      ],
      "name": "createMarketItem",
      "outputs": [],
      "stateMutability": "payable",
      "type": "function"
    },
    {
      "inputs": [],
      "name": "fetchItemCreated",
      "outputs": [
        {
          "components": [
            {
              "internalType": "uint256",
              "name": "tokenId",
              "type": "uint256"
            },
            {
              "internalType": "address",
              "name": "nftContract",
              "type": "address"
            },
            {
              "internalType": "address payable",
              "name": "seller",
              "type": "address"
            },
            {
              "internalType": "address payable",
              "name": "owner",
              "type": "address"
            },
            {
              "internalType": "uint256",
              "name": "price",
              "type": "uint256"
            },
            {
              "internalType": "bool",
              "name": "sold",
              "type": "bool"
            }
          ],
          "internalType": "struct Marketplace.MarketItem[]",
          "name": "",
          "type": "tuple[]"
        }
      ],
      "stateMutability": "view",
      "type": "function"
    },
    {
      "inputs": [],
      "name": "fetchMarketItems",
      "outputs": [
        {
          "components": [
            {
              "internalType": "uint256",
              "name": "tokenId",
              "type": "uint256"
            },
            {
              "internalType": "address",
              "name": "nftContract",
              "type": "address"
            },
            {
              "internalType": "address payable",
              "name": "seller",
              "type": "address"
            },
            {
              "internalType": "address payable",
              "name": "owner",
              "type": "address"
            },
            {
              "internalType": "uint256",
              "name": "price",
              "type": "uint256"
            },
            {
              "internalType": "bool",
              "name": "sold",
              "type": "bool"
            }
          ],
          "internalType": "struct Marketplace.MarketItem[]",
          "name": "",
          "type": "tuple[]"
        }
      ],
      "stateMutability": "view",
      "type": "function"
    },
    {
      "inputs": [],
      "name": "fetchMyNfts",
      "outputs": [
        {
          "components": [
            {
              "internalType": "uint256",
              "name": "tokenId",
              "type": "uint256"
            },
            {
              "internalType": "address",
              "name": "nftContract",
              "type": "address"
            },
            {
              "internalType": "address payable",
              "name": "seller",
              "type": "address"
            },
            {
              "internalType": "address payable",
              "name": "owner",
              "type": "address"
            },
            {
              "internalType": "uint256",
              "name": "price",
              "type": "uint256"
            },
            {
              "internalType": "bool",
              "name": "sold",
              "type": "bool"
            }
          ],
          "internalType": "struct Marketplace.MarketItem[]",
          "name": "",
          "type": "tuple[]"
        }
      ],
      "stateMutability": "view",
      "type": "function"
    },
    {
      "inputs": [],
      "name": "getListingPrice",
      "outputs": [
        {
          "internalType": "uint256",
          "name": "",
          "type": "uint256"
        }
      ],
      "stateMutability": "pure",
      "type": "function"
    }
  ],
  "bytecode": "0x6080604052348015600f57600080fd5b50600160008190555033600360006101000a81548173ffffffffffffffffffffffffffffffffffffffff021916908373ffffffffffffffffffffffffffffffffffffffff16021790555061184c806100686000396000f3fe6080604052600436106100555760003560e01c80630f08efe01461005a578063128ae7121461008557806312e85585146100b0578063351901c3146100db57806358eb2df5146100f75780636d36033914610113575b600080fd5b34801561006657600080fd5b5061006f61013e565b60405161007c9190611305565b60405180910390f35b34801561009157600080fd5b5061009a6103e1565b6040516100a79190611305565b60405180910390f35b3480156100bc57600080fd5b506100c561070e565b6040516100d29190611336565b60405180910390f35b6100f560048036038101906100f09190611382565b61071d565b005b610111600480360381019061010c91906113db565b610a38565b005b34801561011f57600080fd5b50610128610d4e565b6040516101359190611305565b60405180910390f35b6060600060015490506000600254600154610159919061145d565b90506000808267ffffffffffffffff81111561017857610177611491565b5b6040519080825280602002602001820160405280156101b157816020015b61019e6110cb565b8152602001906001900390816101965790505b50905060005b848110156103d657600073ffffffffffffffffffffffffffffffffffffffff16600460006001846101e891906114c0565b815260200190815260200160002060030160009054906101000a900473ffffffffffffffffffffffffffffffffffffffff1673ffffffffffffffffffffffffffffffffffffffff16036103c957600060018261024491906114c0565b90506000600460008381526020019081526020016000209050806040518060c0016040529081600082015481526020016001820160009054906101000a900473ffffffffffffffffffffffffffffffffffffffff1673ffffffffffffffffffffffffffffffffffffffff1673ffffffffffffffffffffffffffffffffffffffff1681526020016002820160009054906101000a900473ffffffffffffffffffffffffffffffffffffffff1673ffffffffffffffffffffffffffffffffffffffff1673ffffffffffffffffffffffffffffffffffffffff1681526020016003820160009054906101000a900473ffffffffffffffffffffffffffffffffffffffff1673ffffffffffffffffffffffffffffffffffffffff1673ffffffffffffffffffffffffffffffffffffffff168152602001600482015481526020016005820160009054906101000a900460ff1615151515815250508486815181106103ad576103ac6114f4565b5b602002602001018190525084806103c390611523565b95505050505b80806001019150506101b7565b508094505050505090565b60606000600154905060008060005b83811015610489573373ffffffffffffffffffffffffffffffffffffffff166004600060018461042091906114c0565b815260200190815260200160002060030160009054906101000a900473ffffffffffffffffffffffffffffffffffffffff1673ffffffffffffffffffffffffffffffffffffffff160361047c57828061047890611523565b9350505b80806001019150506103f0565b5060008267ffffffffffffffff8111156104a6576104a5611491565b5b6040519080825280602002602001820160405280156104df57816020015b6104cc6110cb565b8152602001906001900390816104c45790505b50905060005b84811015610703573373ffffffffffffffffffffffffffffffffffffffff166004600060018461051591906114c0565b815260200190815260200160002060030160009054906101000a900473ffffffffffffffffffffffffffffffffffffffff1673ffffffffffffffffffffffffffffffffffffffff16036106f657600060018261057191906114c0565b90506000600460008381526020019081526020016000209050806040518060c0016040529081600082015481526020016001820160009054906101000a900473ffffffffffffffffffffffffffffffffffffffff1673ffffffffffffffffffffffffffffffffffffffff1673ffffffffffffffffffffffffffffffffffffffff1681526020016002820160009054906101000a900473ffffffffffffffffffffffffffffffffffffffff1673ffffffffffffffffffffffffffffffffffffffff1673ffffffffffffffffffffffffffffffffffffffff1681526020016003820160009054906101000a900473ffffffffffffffffffffffffffffffffffffffff1673ffffffffffffffffffffffffffffffffffffffff1673ffffffffffffffffffffffffffffffffffffffff168152602001600482015481526020016005820160009054906101000a900460ff1615151515815250508486815181106106da576106d96114f4565b5b602002602001018190525084806106f090611523565b95505050505b80806001019150506104e5565b508094505050505090565b60006658d15e17628000905090565b61072561107b565b60006004600083815260200190815260200160002060040154905060006004600084815260200190815260200160002060000154905060006004600085815260200190815260200160002060010160009054906101000a900473ffffffffffffffffffffffffffffffffffffffff1690508234146107d8576040517f08c379a00000000000000000000000000000000000000000000000000000000081526004016107cf906115c8565b60405180910390fd5b60006004600086815260200190815260200160002060020160009054906101000a900473ffffffffffffffffffffffffffffffffffffffff1690508073ffffffffffffffffffffffffffffffffffffffff166108fc349081150290604051600060405180830381858888f19350505050158015610859573d6000803e3d6000fd5b508173ffffffffffffffffffffffffffffffffffffffff166323b872dd3033866040518463ffffffff1660e01b8152600401610897939291906115f7565b600060405180830381600087803b1580156108b157600080fd5b505af11580156108c5573d6000803e3d6000fd5b50505050336004600087815260200190815260200160002060030160006101000a81548173ffffffffffffffffffffffffffffffffffffffff021916908373ffffffffffffffffffffffffffffffffffffffff16021790555060016004600087815260200190815260200160002060050160006101000a81548160ff0219169083151502179055506002600081548092919061096090611523565b9190505550600360009054906101000a900473ffffffffffffffffffffffffffffffffffffffff1673ffffffffffffffffffffffffffffffffffffffff166108fc6658d15e176280009081150290604051600060405180830381858888f193505050501580156109d4573d6000803e3d6000fd5b50828273ffffffffffffffffffffffffffffffffffffffff16867fda3037e3cf7786efa975ab8c48d5e5f239cb6dc1d00cee1abce948356555b97b843389604051610a219392919061168d565b60405180910390a450505050610a356110c1565b50565b610a4061107b565b60008111610a83576040517f08c379a0000000000000000000000000000000000000000000000000000000008152600401610a7a90611710565b60405180910390fd5b6658d15e176280003414610acc576040517f08c379a0000000000000000000000000000000000000000000000000000000008152600401610ac3906117a2565b60405180910390fd5b60016000815480929190610adf90611523565b91905055506040518060c001604052808381526020018473ffffffffffffffffffffffffffffffffffffffff1681526020013373ffffffffffffffffffffffffffffffffffffffff168152602001600073ffffffffffffffffffffffffffffffffffffffff168152602001828152602001600015158152506004600060015481526020019081526020016000206000820151816000015560208201518160010160006101000a81548173ffffffffffffffffffffffffffffffffffffffff021916908373ffffffffffffffffffffffffffffffffffffffff16021790555060408201518160020160006101000a81548173ffffffffffffffffffffffffffffffffffffffff021916908373ffffffffffffffffffffffffffffffffffffffff16021790555060608201518160030160006101000a81548173ffffffffffffffffffffffffffffffffffffffff021916908373ffffffffffffffffffffffffffffffffffffffff1602179055506080820151816004015560a08201518160050160006101000a81548160ff0219169083151502179055509050508273ffffffffffffffffffffffffffffffffffffffff166323b872dd3330856040518463ffffffff1660e01b8152600401610cb5939291906115f7565b600060405180830381600087803b158015610ccf57600080fd5b505af1158015610ce3573d6000803e3d6000fd5b50505050818373ffffffffffffffffffffffffffffffffffffffff166001547f045dfa01dcba2b36aba1d3dc4a874f4b0c5d2fbeb8d2c4b34a7d88c8d8f929d1336000866000604051610d3994939291906117d1565b60405180910390a4610d496110c1565b505050565b60606000600154905060008060005b83811015610df6573373ffffffffffffffffffffffffffffffffffffffff1660046000600184610d8d91906114c0565b815260200190815260200160002060020160009054906101000a900473ffffffffffffffffffffffffffffffffffffffff1673ffffffffffffffffffffffffffffffffffffffff1603610de9578280610de590611523565b9350505b8080600101915050610d5d565b5060008267ffffffffffffffff811115610e1357610e12611491565b5b604051908082528060200260200182016040528015610e4c57816020015b610e396110cb565b815260200190600190039081610e315790505b50905060005b84811015611070573373ffffffffffffffffffffffffffffffffffffffff1660046000600184610e8291906114c0565b815260200190815260200160002060020160009054906101000a900473ffffffffffffffffffffffffffffffffffffffff1673ffffffffffffffffffffffffffffffffffffffff1603611063576000600182610ede91906114c0565b90506000600460008381526020019081526020016000209050806040518060c0016040529081600082015481526020016001820160009054906101000a900473ffffffffffffffffffffffffffffffffffffffff1673ffffffffffffffffffffffffffffffffffffffff1673ffffffffffffffffffffffffffffffffffffffff1681526020016002820160009054906101000a900473ffffffffffffffffffffffffffffffffffffffff1673ffffffffffffffffffffffffffffffffffffffff1673ffffffffffffffffffffffffffffffffffffffff1681526020016003820160009054906101000a900473ffffffffffffffffffffffffffffffffffffffff1673ffffffffffffffffffffffffffffffffffffffff1673ffffffffffffffffffffffffffffffffffffffff168152602001600482015481526020016005820160009054906101000a900460ff161515151581525050848681518110611047576110466114f4565b5b6020026020010181905250848061105d90611523565b95505050505b8080600101915050610e52565b508094505050505090565b6002600054036110b7576040517f3ee5aeb500000000000000000000000000000000000000000000000000000000815260040160405180910390fd5b6002600081905550565b6001600081905550565b6040518060c0016040528060008152602001600073ffffffffffffffffffffffffffffffffffffffff168152602001600073ffffffffffffffffffffffffffffffffffffffff168152602001600073ffffffffffffffffffffffffffffffffffffffff168152602001600081526020016000151581525090565b600081519050919050565b600082825260208201905092915050565b6000819050602082019050919050565b6000819050919050565b61118481611171565b82525050565b600073ffffffffffffffffffffffffffffffffffffffff82169050919050565b60006111b58261118a565b9050919050565b6111c5816111aa565b82525050565b60006111d68261118a565b9050919050565b6111e6816111cb565b82525050565b60008115159050919050565b611201816111ec565b82525050565b60c08201600082015161121d600085018261117b565b50602082015161123060208501826111bc565b50604082015161124360408501826111dd565b50606082015161125660608501826111dd565b506080820151611269608085018261117b565b5060a082015161127c60a08501826111f8565b50505050565b600061128e8383611207565b60c08301905092915050565b6000602082019050919050565b60006112b282611145565b6112bc8185611150565b93506112c783611161565b8060005b838110156112f85781516112df8882611282565b97506112ea8361129a565b9250506001810190506112cb565b5085935050505092915050565b6000602082019050818103600083015261131f81846112a7565b905092915050565b61133081611171565b82525050565b600060208201905061134b6000830184611327565b92915050565b600080fd5b61135f81611171565b811461136a57600080fd5b50565b60008135905061137c81611356565b92915050565b60006020828403121561139857611397611351565b5b60006113a68482850161136d565b91505092915050565b6113b8816111aa565b81146113c357600080fd5b50565b6000813590506113d5816113af565b92915050565b6000806000606084860312156113f4576113f3611351565b5b6000611402868287016113c6565b93505060206114138682870161136d565b92505060406114248682870161136d565b9150509250925092565b7f4e487b7100000000000000000000000000000000000000000000000000000000600052601160045260246000fd5b600061146882611171565b915061147383611171565b925082820390508181111561148b5761148a61142e565b5b92915050565b7f4e487b7100000000000000000000000000000000000000000000000000000000600052604160045260246000fd5b60006114cb82611171565b91506114d683611171565b92508282019050808211156114ee576114ed61142e565b5b92915050565b7f4e487b7100000000000000000000000000000000000000000000000000000000600052603260045260246000fd5b600061152e82611171565b91507fffffffffffffffffffffffffffffffffffffffffffffffffffffffffffffffff82036115605761155f61142e565b5b600182019050919050565b600082825260208201905092915050565b7f50726f7669646520617070726f70726961746520707269636500000000000000600082015250565b60006115b260198361156b565b91506115bd8261157c565b602082019050919050565b600060208201905081810360008301526115e1816115a5565b9050919050565b6115f1816111aa565b82525050565b600060608201905061160c60008301866115e8565b61161960208301856115e8565b6116266040830184611327565b949350505050565b6000819050919050565b600061165361164e6116498461118a565b61162e565b61118a565b9050919050565b600061166582611638565b9050919050565b60006116778261165a565b9050919050565b6116878161166c565b82525050565b60006060820190506116a2600083018661167e565b6116af60208301856115e8565b6116bc6040830184611327565b949350505050565b7f5072696365206d757374206265206174206c6561737420312077656900000000600082015250565b60006116fa601c8361156b565b9150611705826116c4565b602082019050919050565b60006020820190508181036000830152611729816116ed565b9050919050565b7f5072696365206d75737420626520657175616c20746f204c697369746e67205060008201527f7269636500000000000000000000000000000000000000000000000000000000602082015250565b600061178c60248361156b565b915061179782611730565b604082019050919050565b600060208201905081810360008301526117bb8161177f565b9050919050565b6117cb816111ec565b82525050565b60006080820190506117e660008301876115e8565b6117f360208301866115e8565b6118006040830185611327565b61180d60608301846117c2565b9594505050505056fea26469706673582212209d98a3e3d4f11a7849d0082d1102a229bb99ffe103a7988152b099750d03c5c864736f6c634300081c0033",
  "linkReferences": {},
  "deployedLinkReferences": {}
}